:100000000C943E000C9453000C9453000C94530039
:100010000C9453000C9453000C9453000C94530014
:100020000C9453000C9453000C9453000C94530004
:100030000C9453000C9453000C9453000C945300F4
:100040000C9453000C9453000C9453000C945300E4
:100050000C9453000C9453000C9453000C945300D4
:100060000C9453000C9453000C9453000C945300C4
:100070000C9453000C9453000C94530011241FBE95
:10008000CFEFD8E0DEBFCDBF11E0A0E0B1E0ECE5FE
:10009000F7E202C005900D92A434B107D9F70E948F
:1000A0001C100C94AC130C940000CF93DF93DC0174
:1000B000EB01FA01488150E0898190E02C91EA013E
:1000C000C21BD109218130E0281B390BC29FB0012E
:1000D000C39F700DD29F700D112411962C91821B1D
:1000E0009109208130E0241B350B829FA001839F62
:1000F000500D929F500D1124CB01841B950B64175A
:10010000750739F01816190634F082E0DF91CF91A7
:10011000089580E0FBCF81E0F9CFCF92DF92EF929C
:10012000FF920F931F93CF93DF937C01362F8C01A7
:10013000D0E0C0E020E0C62ED12C21968C2F81503B
:10014000831760F02695822F90E0DF91CF911F9169
:100150000F91FF90EF90DF90CF900895CE01B60100
:100160000E946213FC01EE0FFF1FEE0DFF1DD80170
:1001700011964C91119790818181499F200D1124F6
:10018000281B8C91281B0E5F1F4FD7CF2F923F92B9
:100190004F925F926F927F928F929F92AF92BF9297
:1001A000CF92DF92EF92FF920F931F93CF93DF9343
:1001B000CDB7DEB7A8970FB6F894DEBF0FBECDBFA0
:1001C0007C013B016A018E010B5D1F4FC8010E943B
:1001D000F30D970190E0412C0FA318A7D90180E0FF
:1001E0004D91413069F4E42DF0E0EE0FFF1F41E046
:1001F00050E04C0F5D1FE40FF51F928B838B4394EF
:100200008F5F883069F79F5F285F3F4F943031F7E9
:10021000FE01739680E0312C032D10E0000F111FBA
:10022000A1E0B0E0AC0FBD1FA00FB11F53969C9191
:100230009EA3481269C0532C842C912CE52CF12CE0
:10024000C7010196B4010E946213EE0CFF1CA3E1EA
:10025000B0E0AC0FBD1FEA0EFB1E5D01582E212C35
:10026000452D50E0440F551F421056C0D6012C9129
:10027000A22FB0E0AA0FBB1FE1E0F0E0EC0FFD1FE2
:10028000AE0FBF1F4E0F5F1FFA0182898C938389C7
:1002900011968C93E1E0E20FD601EC933510CECFAE
:1002A000F0E0EE0FFF1F21E030E02C0F3D1FE20FCA
:1002B000F31FD901A00FB11F52968C9180833EA1EC
:1002C000318380E021E0D6019C918917B8F18FA19C
:1002D00098A50E94180EA8960FB6F894DEBF0FBE20
:1002E000CDBFDF91CF911F910F91FF90EF90DF90E5
:1002F000CF90BF90AF909F908F907F906F905F90C6
:100300004F903F902F90089591815EA1951708F42A
:10031000382E8F5F329680CF23E130E02C0F3D1FC7
:10032000420F531FB501C7010E945500823009F4E6
:10033000522C239432E0A30EB11C92CFA82FB0E030
:10034000AA0FBB1F41E050E04C0F5D1FA40FB51F6B
:10035000EC9158E0E59FF0011124E60DF71D119690
:100360009C91E90FF11D20838F5FADCF2F923F92BB
:100370004F925F926F927F928F929F92AF92BF92B5
:10038000CF92DF92EF92FF920F931F93CF93DF9361
:1003900000D000D0CDB7DEB78B839C83AB81BC810E
:1003A000ECE51D92EA95E9F7ECE3AB81BC81EC93B7
:1003B00083E7282E11962C92119706E712960C933C
:1003C000129717E613961C93139790E214969C933A
:1003D0001497F7E71596FC93159759E616965C93D4
:1003E000169724E6E22E1796EC92179724E71896B4
:1003F0002C931897E8E61996EC9319973DE31A9613
:100400003C931A9782E21B968C931B9741E3F42E40
:100410001C96FC921C9770E31D967C931D971E966C
:100420007C931E9765E21F966C931F9750968C9352
:10043000509751969C9351975296EC93529745E65C
:1004400053964C93539754965C93549755961C939C
:1004500055975696EC93569757962C9357975896D0
:100460003C93589759968C9359975A96FC925A9761
:100470005B967C935B975C967C935C975D966C93A4
:100480005D975E968C935E975F969C935F970F2E19
:10049000F8E79F2EF02D90969C9290970F2EFDE6F8
:1004A000AF2EF02D9196AC9291970F2EFCE67F2EF9
:1004B000F02D92967C9292970F2EFEE6BF2EF02D95
:1004C0009396BC92939794962C92949795963C937E
:1004D000959796968C9396979796EC939797989670
:1004E0002C93989799962C9399970F2EF0E7AF2E0F
:1004F000F02D9A96AC929A970F2EFAE3DF2EF02DFC
:100500009B96DC929B970F2EFFE2CF2EF02D9C96B0
:10051000CC929C979D96CC929D979E96FC939E978D
:100520009F96FC939F97D096FC93D0970F2EFEE258
:100530009F2EF02DD1969C92D197D296FC93D29774
:100540000F2EF3E3BF2EF02DD396BC92D397D49603
:100550009C92D4970F2EFFE64F2EF02DD5964C92FD
:10056000D5970F2EF2E73F2EF02DD6963C92D697D8
:10057000D7961C93D797D896CC92D8970F2EF2E3A4
:100580009F2EF02DD9969C92D997DA967C93DA9784
:10059000DB967C93DB97DC967C93DC97DD96CC92A4
:1005A000DD97DE962C92DE97DF960C93DF97A05CAA
:1005B000BF4F1C93AB81BC81AF5BBF4F8C93AB81B2
:1005C000BC81AE5BBF4F9C93AB81BC81AD5BBF4F29
:1005D0000C93AB81BC81AC5BBF4F5C93AB81BC81A6
:1005E000AB5BBF4F4C93AB81BC81AA5BBF4FFC930D
:1005F000AB81BC81A95BBF4F02E40C93AB81BC8192
:10060000A85BBF4F4C92AB81BC81A75BBF4F08E793
:100610000C93AB81BC81A65BBF4F3C93AB81BC818B
:10062000A55BBF4F8C93AB81BC81A45BBF4F7C9318
:10063000AB81BC81A35BBF4F9C93AB81BC81A25BB0
:10064000BF4F7C93AB81BC81A15BBF4F9C93AB81BF
:10065000BC81A05BBF4FFC92AB81BC81AF5ABF4F46
:10066000FC92AB81BC81AE5ABF4F05E30C93AB81CA
:10067000BC81AD5ABF4F9C92AB81BC81AC5ABF4F7D
:100680009C93AB81BC81AB5ABF4F0C93AB81BC81B7
:10069000AA5ABF4F07E30C93AB81BC81A95ABF4F45
:1006A00006E3B02EBC92AB81BC81A85ABF4F8C939D
:1006B000AB81BC81A75ABF4F0EE30C93AB81BC81C9
:1006C000A45ABF4FBA83A9830CE5B02E1D92BA94E9
:1006D000E9F7ACE3BA2EA981BA81BC92AB81BC81A7
:1006E000A35ABF4F3C92AB81BC81A25ABF4F4C93DF
:1006F000AB81BC81A15ABF4F03E6B02EBC92AB8147
:10070000BC81A05ABF4F2C93AB81BC81AF59BF4F66
:100710009C93AB81BC81AE59BF4F08E70C93AB8172
:10072000BC81AD59BF4F3C93AB81BC81AC59BF4F2D
:100730008C93AB81BC81AB59BF4F7C93AB81BC81A7
:10074000AA59BF4F8C93AB81BC81A959BF4F9C93D1
:10075000AB81BC81A859BF4F09E7502E5C92AB8199
:10076000BC81A759BF4F3C93AB81BC81A659BF4FF9
:100770008C93AB81BC81A559BF4F7C93AB81BC816D
:10078000A459BF4F8C93AB81BC81A359BF4F9C939D
:10079000AB81BC81A259BF4FFC93AB81BC81A159F5
:1007A000BF4F5C93AB81BC81A059BF4FEC92AB8132
:1007B000BC81AF58BF4F2C93AB81BC81AE58BF4FAB
:1007C000EC93AB81BC81AD58BF4F3C93AB81BC81F6
:1007D000AC58BF4F8C93AB81BC81AB58BF4FFC92E0
:1007E000AB81BC81AA58BF4F7C93AB81BC81A95817
:1007F000BF4F7C93AB81BC81A858BF4F6C93AB813A
:10080000BC81A758BF4F8C93AB81BC81A658BF4F0A
:100810009C93AB81BC81A558BF4FEC93AB81BC814D
:10082000A458BF4F4C93AB81BC81A358BF4F5C937E
:10083000AB81BC81A258BF4F1C93AB81BC81A15836
:10084000BF4FEC93AB81BC81A058BF4F2C93AB81C1
:10085000BC81AF57BF4F3C93AB81BC81AE57BF4FFC
:100860008C93AB81BC81AD57BF4FFC92AB81BC81F7
:10087000AC57BF4F7C93AB81BC81AB57BF4F7C93D0
:10088000AB81BC81AA57BF4F6C93AB81BC81A95788
:10089000BF4F8C93AB81BC81A857BF4F9C93AB815A
:1008A000BC81A757BF4F2C92AB81BC81A657BF4FCD
:1008B0002C93AB81BC81A557BF4F3C92AB81BC81CF
:1008C000A457BF4F4C92AB81BC81A357BF4F0BE6DF
:1008D0000C93AB81BC81A257BF4F4C93AB81BC81C1
:1008E000A157BF4F3C93AB81BC81A057BF4F8C93A6
:1008F000AB81BC81AF56BF4F62E66C93AB81BC81CC
:10090000AE56BF4F7C92AB81BC81AD56BF4F61E606
:10091000662E6C92AB81BC81AC56BF4FBC92AB8152
:10092000BC81AB56BF4F0C93AB81BC81AA56BF4F65
:100930008C93AB81BC81A956BF4F9C93AB81BC818A
:10094000A856BF4F2C92AB81BC81A756BF4F2C93AA
:10095000AB81BC81A656BF4F3C92AB81BC81A556F2
:10096000BF4F4C92AB81BC81A456BF4F0C93AB815F
:10097000BC81A356BF4F4C93AB81BC81A256BF4FE5
:100980006DE26C93AB81BC81A156BF4FFC93AB81F0
:10099000BC81A056BF4F5C93AB81BC81AF55BF4FAC
:1009A000EC92AB81BC81AE55BF4F2C93AB81BC8127
:1009B000AD55BF4FEC93AB81BC81AC55BF4F3C9361
:1009C000AB81BC81AB55BF4F8C93AB81BC81AA5529
:1009D000BF4FFC92AB81BC81A955BF4F8C93AB81BB
:1009E000BC81A855BF4F9C93AB81BC81A755BF4F1D
:1009F00066E6862E8C92AB81BC81A655BF4F5C9378
:100A0000AB81BC81A555BF4F7C92AB81BC81A45505
:100A1000BF4F7C92AB81BC81A355BF4F3C93AB8150
:100A2000BC81A255BF4F8C93AB81BC81A155BF4FF8
:100A3000FC93AB81BC81A055BF4FEC93AB81BC81D3
:100A4000AF54BF4F5C93AB81BC81AE54BF4F2C936E
:100A5000AB81BC81AD54BF4F4C93AB81BC81AC54D6
:100A6000BF4F8C93AB81BC81AB54BF4FCC92AB8159
:100A7000BC81AA54BF4F6EE36C93AB81BC81A85478
:100A8000BF4FBA83A9836CE51D926A95E9F76CE3C1
:100A9000A981BA816C93AB81BC81A754BF4F3C92B2
:100AA000AB81BC81A654BF4F4C93AB81BC81A55494
:100AB000BF4FBC92AB81BC81A454BF4F2C93AB8180
:100AC000BC81A354BF4F9C93AB81BC81A254BF4F48
:100AD00068E76C93AB81BC81A154BF4F3C93AB8161
:100AE000BC81A054BF4F8C93AB81BC81AF53BF4F2F
:100AF00069E36C93AB81BC81AE53BF4F66E36C93EB
:100B0000AB81BC81AD53BF4F8C93AB81BC81AC53E7
:100B1000BF4F9C93AB81BC81AB53BF4F5C92AB8109
:100B2000BC81AA53BF4F3C93AB81BC81A953BF4F3B
:100B30008C93AB81BC81A853BF4F64E36C93AB81B2
:100B4000BC81A753BF4F68E36C93AB81BC81A653B4
:100B5000BF4F8C93AB81BC81A553BF4F9C93AB819E
:100B6000BC81A453BF4FFC93AB81BC81A353BF4F47
:100B70005C93AB81BC81A253BF4FEC92AB81BC8133
:100B8000A153BF4F2C93AB81BC81A053BF4FEC93BB
:100B9000AB81BC81AF52BF4F3C93AB81BC81AE52A5
:100BA000BF4F8C93AB81BC81AD52BF4F69E36C9357
:100BB000AB81BC81AC52BF4F66E36C93AB81BC810F
:100BC000AB52BF4F7C93AB81BC81AA52BF4F8C9379
:100BD000AB81BC81A952BF4F9C93AB81BC81A85211
:100BE000BF4FEC93AB81BC81A752BF4F4C93AB81FD
:100BF000BC81A652BF4F5C93AB81BC81A552BF4F55
:100C00001C93AB81BC81A452BF4FEC93AB81BC81E0
:100C1000A352BF4F2C93AB81BC81A252BF4F3C93D8
:100C2000AB81BC81A152BF4F8C93AB81BC81A052E0
:100C3000BF4F64E36C93AB81BC81AF51BF4F68E39E
:100C40006C93AB81BC81AE51BF4F7C93AB81BC81B7
:100C5000AD51BF4F8C93AB81BC81AC51BF4F9C93C6
:100C6000AB81BC81AB51BF4F2C92AB81BC81AA51EF
:100C7000BF4F2C93AB81BC81A951BF4F3C92AB813C
:100C8000BC81A851BF4F4C92AB81BC81A751BF4FD3
:100C90000C93AB81BC81A651BF4F4C93AB81BC81FF
:100CA000A551BF4F3C93AB81BC81A451BF4F8C93E6
:100CB000AB81BC81A351BF4F62E66C93AB81BC8119
:100CC000A251BF4F7C92AB81BC81A151BF4F6C92AE
:100CD000AB81BC81A051BF4FBC92AB81BC81AF50F6
:100CE000BF4F0C93AB81BC81AE50BF4F8C93AB8197
:100CF000BC81AD50BF4F9C93AB81BC81AC50BF4F0A
:100D00002C92AB81BC81AB50BF4F2C93AB81BC818B
:100D1000AA50BF4F3C92AB81BC81A950BF4F4C92AF
:100D2000AB81BC81A850BF4F0C93AB81BC81A75055
:100D3000BF4F4C93AB81BC81A650BF4F6DE26C930B
:100D4000AB81BC81A550BF4FFC93AB81BC81A4504B
:100D5000BF4F5C93AB81BC81A350BF4FEC92AB8182
:100D6000BC81A250BF4F2C93AB81BC81A150BF4F1F
:100D7000EC93AB81BC81B3953C93AB81BC81AF5FFD
:100D8000BE4F8C93AB81BC81AE5FBE4FFC92AB81FA
:100D9000BC81AD5FBE4F8C93AB81BC81AC5FBE4F5D
:100DA0009C93AB81BC81AB5FBE4F8C92AB81BC810D
:100DB000AA5FBE4F5C93AB81BC81A95FBE4F7C92A2
:100DC000AB81BC81A85FBE4F7C92AB81BC81A75F29
:100DD000BE4F3C93AB81BC81A65FBE4F8C93AB8171
:100DE000BC81A55FBE4FFC93AB81BC81A45FBE4FAD
:100DF000EC93AB81BC81A35FBE4F5C93AB81BC81A4
:100E0000A25FBE4F2C93AB81BC81A15FBE4F4C93C0
:100E1000AB81BC81A05FBE4F8C93AB81BC81AF5EC8
:100E2000BE4FCC92AB81BC81AE5EBE4F6EE36C9385
:100E3000AB81BC81AC5EBE4FBA83A98366EE1D92C6
:100E40006A95E9F76CE3A981BA816C93AB81BC81A7
:100E5000AB5EBE4FAC92AB81BC81AA5EBE4F4C92E2
:100E6000AB81BC81A95EBE4F7C92AB81BC81A85E88
:100E7000BE4F5C92AB81BC81A75EBE4F1C93AB8121
:100E8000BC81A65EBE4F4C92AB81BC81A55EBE4FBD
:100E90006EE66C93AB81BC81A45EBE4F9C93AB812C
:100EA000BC81A35EBE4FAC92AB81BC81A25EBE4F43
:100EB0004C92AB81BC81A15EBE4F5C93AB81BC8187
:100EC000A05EBE4F6C93AB81BC81AF5DBE4F2C93D7
:100ED000AB81BC81AE5DBE4F2C92AB81BC81AD5D60
:100EE000BE4F3C93AB81BC81AC5DBE4F8C93AB815C
:100EF000BC81AB5DBE4F8C93AB81BC81AA5DBE4F04
:100F00009C93AB81BC81A95DBE4F2C92AB81BC810F
:100F1000A85DBE4F2C93AB81BC81A75DBE4F5C9298
:100F2000AB81BC81A65DBE4F7C92AB81BC81A55DCF
:100F3000BE4F4C93AB81BC81A45DBE4F3C93AB8153
:100F4000BC81A35DBE4F8C93AB81BC81A25DBE4FC3
:100F50008C92AB81BC81A15DBE4F5C93AB81BC81A7
:100F6000A05DBE4F7C92AB81BC81AF5CBE4F7C92DA
:100F7000AB81BC81AE5CBE4FDC92AB81BC81AD5C11
:100F8000BE4F1C93AB81BC81AC5CBE4F3C92AB812D
:100F9000BC81AB5CBE4F4C93AB81BC81AA5CBE4FA5
:100FA0004C93AB81BC81A95CBE4F6C93AB81BC817F
:100FB000A85CBE4F6BE36C93AB81BC81A75CBE4F5A
:100FC0002C92AB81BC81A65CBE4F2C93AB81BC81C3
:100FD000A55CBE4F3C92AB81BC81A45CBE4F4C92E1
:100FE000AB81BC81A35CBE4F0C93AB81BC81A25C86
:100FF000BE4F4C93AB81BC81A15CBE4FDC92AB81F8
:10100000BC81A05CBE4F0F2EF2E6AF2EF02DAC924D
:10101000AB81BC81AF5BBE4F7C92AB81BC81AE5BD0
:10102000BE4F0F2EF5E7AF2EF02DAC92AB81BC81F9
:10103000AD5BBE4F4C93AB81BC81AC5BBE4F6C9340
:10104000AB81BC81AB5BBE4F2C92AB81BC81AA5BF8
:10105000BE4F2C93AB81BC81A95BBE4F3C92AB8150
:10106000BC81A85BBE4F4C92AB81BC81A75BBE4FDD
:101070000C93AB81BC81A65BBE4F4C93AB81BC8112
:10108000A55BBE4F6DE26C93AB81BC81A45BBE4F90
:10109000FC93AB81BC81A35BBE4F5C93AB81BC81F5
:1010A000A25BBE4FEC92AB81BC81A15BBE4F2C9387
:1010B000AB81BC81A05BBE4FEC93AB81BC81AF5ACE
:1010C000BE4FDC92AB81BC81AE5ABE4F9C92AB81CD
:1010D000BC81AD5ABE4F8C93AB81BC81AC5ABE4F24
:1010E0009C93AB81BC81AB5ABE4FCC92AB81BC818F
:1010F000AA5ABE4F6EE3A62EAC92AB81BC81A6501D
:10110000BE4FBA83A9836CE5A62E1D92AA94E9F777
:10111000ACE3AA2EA981BA81AC92AB81BC81A55067
:10112000BE4F3C92AB81BC81A450BE4F4C93AB816F
:10113000BC81A350BE4FBC92AB81BC81A250BE4FBC
:101140002C93AB81BC81A150BE4F9C93AB81BC81E1
:10115000BE5F68E7D62EDC92AB81BC81AF5FBD4F2E
:101160003C93AB81BC81AE5FBD4F8C93AB81BC81A6
:10117000AD5FBD4F61E3D62EFC92AB81BC81AC5F0D
:10118000BD4F68E36C93AB81BC81AB5FBD4F66E341
:10119000A62EAC92AB81BC81AA5FBD4F62E28C935C
:1011A000AB81BC81A95FBD4F9C93AB81BC81A85F23
:1011B000BD4F5C92AB81BC81A75FBD4F0F2EFDE39D
:1011C000AF2EF02D3C93AB81BC81A65FBD4F8C93BD
:1011D000AB81BC81A55FBD4FFC92AB81BC81A45F9C
:1011E000BD4F9C92AB81BC81A35FBD4F0F2EF3E33B
:1011F0009F2EF02D9C92AB81BC81A25FBD4F8C9342
:10120000AB81BC81A15FBD4F9C93AB81BC81A05FD2
:10121000BD4FFC93AB81BC81AF5EBD4F5C93AB8196
:10122000BC81AE5EBD4FEC92AB81BC81AD5EBD4F6B
:101230002C93AB81BC81AC5EBD4FEC93AB81BC8188
:10124000AB5EBD4F3C93AB81BC81AA5EBD4F8C931E
:10125000AB81BC81A95EBD4FFC92AB81BC81A85E15
:10126000BD4F7C93AB81BC81A75EBD4F8C93AB819E
:10127000BC81A65EBD4F9C93AB81BC81A55EBD4F7A
:10128000EC93AB81BC81A45EBD4F4C93AB81BC8120
:10129000A35EBD4F5C93AB81BC81A25EBD4F1C932E
:1012A000AB81BC81A15EBD4FEC93AB81BC81A05EE4
:1012B000BD4F2C93AB81BC81AF5DBD4F3C93AB81E7
:1012C000BC81AE5DBD4F8C93AB81BC81AD5DBD4F2C
:1012D000FC92AB81BC81AC5DBD4F7C93AB81BC818A
:1012E000AB5DBD4F8C93AB81BC81AA5DBD4F9C9320
:1012F000AB81BC81A95DBD4F2C92AB81BC81A85D47
:10130000BD4F2C93AB81BC81A75DBD4F72E73C9272
:10131000AB81BC81A65DBD4F4C92AB81BC81A55D0C
:10132000BD4F0C93AB81BC81A45DBD4F4C93AB8191
:10133000BC81A35DBD4F3C93AB81BC81A25DBD4F21
:101340008C93AB81BC81A15DBD4F12E61C93AB8138
:10135000BC81A05DBD4F7C92AB81BC81AF5CBD4FB9
:101360006C92AB81BC81AE5CBD4F13E6BC92AB818D
:10137000BC81AD5CBD4F0C93AB81BC81AC5CBD4FFF
:101380008C93AB81BC81AB5CBD4F9C93AB81BC812A
:10139000AA5CBD4F2C92AB81BC81A95CBD4F2C9344
:1013A000AB81BC81A85CBD4F3C92AB81BC81A75C8A
:1013B000BD4F4C92AB81BC81A65CBD4F0C93AB8101
:1013C000BC81A55CBD4F4C93AB81BC81A45CBD4F7F
:1013D0000F2EFDE29F2EF02D9C92AB81BC81A35C71
:1013E000BD4FFC93AB81BC81A25CBD4F5C93AB81D4
:1013F000BC81A15CBD4FEC92AB81BC81A05CBD4FB8
:101400002C93AB81BC81AF5BBD4FEC93EB81FC8136
:10141000EE5BFD4F3083EB81FC81ED5BFD4F808304
:10142000EB81FC81EC5BFD4FF082EB81FC81EB5B9F
:10143000FD4F8083EB81FC81EA5BFD4F9083EB8164
:10144000FC81E95BFD4F8082EB81FC81E85BFD4F15
:101450005083EB81FC81E75BFD4F7082EB81FC8167
:10146000E65BFD4F7082EB81FC81E55BFD4F3083D5
:10147000EB81FC81E45BFD4F8083EB81FC81E35BCE
:10148000FD4FA2E6FA2EF082EB81FC81E25BFD4F7C
:101490007082EB81FC81E15BFD4F6082EB81FC811E
:1014A000E05BFD4FB082EB81FC81EF5AFD4F008382
:1014B000EB81FC81EE5AFD4F8083EB81FC81ED5A7C
:1014C000FD4FBFE2BB2EC082EB81FC81EC5AFD4F89
:1014D0000EE30083EB81FC81EA5AFD4FDF010F2E02
:1014E000FCE59F2EF02D1D929A94E9F7ACE3EA2ECD
:1014F000E082EB81FC81E95AFD4F2083EB81FC8186
:10150000E85AFD4F4083EB81FC81E75AFD4FB8E775
:10151000FB2EF082EB81FC81E65AFD4F2083EB81AC
:10152000FC81E55AFD4F9083EB81FC81E45AFD4F2D
:10153000F082EB81FC81E35AFD4F3083EB81FC812B
:10154000E25AFD4F8083EB81FC81E15AFD4FA9E314
:10155000A083EB81FC81E05AFD4FB6E3B083EB81C1
:10156000FC81EF59FD4F8083EB81FC81EE59FD4FEB
:101570009083EB81FC81ED59FD4F5082EB81FC8122
:10158000EC59FD4F3083EB81FC81EB59FD4F80839B
:10159000EB81FC81EA59FD4FA3E39A2E9082EB8107
:1015A000FC81E959FD4FB083EB81FC81E859FD4F87
:1015B0008083EB81FC81E759FD4F9083EB81FC81B7
:1015C000E659FD4F8082EB81FC81E559FD4F408259
:1015D000EB81FC81E459FD4FAEE6A083EB81FC81F9
:1015E000E359FD4F2083EB81FC81E259FD4F80825E
:1015F000EB81FC81E159FD4FBDE2B083EB81FC81C1
:10160000E059FD4F8082EB81FC81EF58FD4F6082F5
:10161000EB81FC81EE58FD4F0F2EFDE69F2EF02D45
:101620009082EB81FC81ED58FD4F5083EB81FC8172
:10163000EC58FD4F7082EB81FC81EB58FD4F5082DE
:10164000EB81FC81EA58FD4F3083EB81FC81E95846
:10165000FD4F8083EB81FC81E858FD4F6082EB8178
:10166000FC81E758FD4F3082EB81FC81E658FD4F4D
:101670005083EB81FC81E558FD4F6082EB81FC815A
:10168000E458FD4F7082EB81FC81E358FD4F80836D
:10169000EB81FC81E258FD4F9083EB81FC81E158A6
:1016A000FD4F8082EB81FC81E058FD4F4082EB8151
:1016B000FC81EF57FD4FA083EB81FC81EE57FD4F7E
:1016C0002083EB81FC81ED57FD4FB083EB81FC81E2
:1016D000EC57FD4F2082EB81FC81EB57FD4F50838F
:1016E000EB81FC81EA57FD4F9AE79083EB81FC8107
:1016F000E957FD4F4083EB81FC81E857FD4F308374
:10170000EB81FC81E757FD4F8083EB81FC81E6573D
:10171000FD4F92E69083EB81FC81E557FD4F70828F
:10172000EB81FC81E457FD4FA5E7A083EB81FC81B1
:10173000E357FD4F4083EB81FC81E257FD4F8083EF
:10174000EB81FC81E157FD4F0083EB81FC81E05789
:10175000FD4F89E48083EB81FC81EF56FD4F8EE4E1
:101760008083EB81FC81EE56FD4F86E48083EB8124
:10177000FC81ED56FD4FD082EB81FC81EC56FD4F94
:1017800089E38083EB81FC81EB56FD4FB0E3B083AE
:10179000EB81FC81EA56FD4FB083EB81FC81E95679
:1017A000FD4F8DE2982E9082EB81FC81E856FD4F33
:1017B000D082EB81FC81E756FD4F85E38083EB818E
:1017C000FC81E656FD4F88E38083EB81FC81E55682
:1017D000FD4FD082EB81FC81E456FD4F96E3908370
:1017E000EB81FC81E356FD4FD082EB81FC81E25618
:1017F000FD4FE082EB81FC81E156FD4FB082EB8131
:10180000FC81E056FD4FA4E7A083EB81FC81EF55FE
:10181000FD4FB5E6B083EB81FC81EE55FD4FF082C4
:10182000EB81FC81ED55FD4FA083EB81FC81EC55F4
:10183000FD4F0083AB81BC81AE54BD4F86E0E5E235
:10184000F1E001900D928A95E1F7EB81FC81E8547B
:10185000FD4F8FE4DF011D928A95E9F7E082EB816D
:10186000FC81E754FD4F1083EB81FC81E654FD4F72
:10187000B9E6B083EB81FC81E554FD4F7083EB81C9
:10188000FC81E454FD4F1083EB81FC81E354FD4F58
:101890009CE6992E9082EB81FC81E254FD4F85E617
:1018A0008083EB81FC81E154FD4F90E29083EB81DA
:1018B000FC81E054FD4F1083EB81FC81EF53FD4F21
:1018C000F082EB81FC81EE53FD4FA082EB81FC8125
:1018D000ED53FD4F6083EB81FC81EC53FD4FD082D3
:1018E000EB81FC81EB53FD4FA8E3A083EB81FC81EE
:1018F000EA53FD4FB6E3B083EB81FC81E953FD4F22
:101900006083EB81FC81E853FD4F9083EB81FC8188
:10191000E753FD4F1083EB81FC81E653FD4F29E730
:10192000922E9082EB81FC81E553FD4FA082EB81EA
:10193000FC81E453FD4F6083EB81FC81E353FD4F59
:10194000D082EB81FC81E253FD4F32E3F32EF08233
:10195000EB81FC81E153FD4F83E38083EB81FC81CC
:10196000E053FD4F6083EB81FC81EF52FD4F90838C
:10197000EB81FC81EE52FD4F7083EB81FC81ED52D7
:10198000FD4FA082EB81FC81EC52FD4F6083EB8127
:10199000FC81EB52FD4FD082EB81FC81EA52FD4F7E
:1019A00080E38083EB81FC81E952FD4F6083EB8112
:1019B000FC81E852FD4F9083EB81FC81E752FD4FA3
:1019C00093E79083EB81FC81E652FD4FA4E7A0836F
:1019D000EB81FC81E552FD4F7083EB81FC81E45289
:1019E000FD4FBFE6B083EB81FC81E352FD4F4BE638
:1019F000942E9082EB81FC81E252FD4F55E6D52E6C
:101A0000D082EB81FC81E152FD4FA082EB81FC8111
:101A1000E052FD4F6083EB81FC81EF51FD4F82E688
:101A20008083EB81FC81EE51FD4F8CE6F82EF08235
:101A3000EB81FC81ED51FD4F81E68083EB81FC81E0
:101A4000EC51FD4F1083EB81FC81EB51FD4F9082F7
:101A5000EB81FC81EA51FD4F6083EB81FC81E95110
:101A6000FD4F10E21083EB81FC81E851FD4F908324
:101A7000EB81FC81E751FD4FA083EB81FC81E651B6
:101A8000FD4F7083EB81FC81E551FD4FB083EB810D
:101A9000FC81E451FD4F9082EB81FC81E351FD4FCD
:101AA000D082EB81FC81E251FD4F8DE28083EB819E
:101AB000FC81E151FD4F87E78083EB81FC81E051A0
:101AC000FD4F99E69083EB81FC81EF50FD4F84E65A
:101AD0008083EB81FC81EE50FD4FA083EB81FC8184
:101AE000ED50FD4F88E68083EB81FC81EC50FD4F8B
:101AF000A082EB81FC81EB50FD4F6083EB81FC8188
:101B0000EA50FD4FA2E3A083EB81FC81E950FD4F39
:101B10006083EB81FC81E850FD4F1083EB81FC81F9
:101B2000E750FD4F86E68083EB81FC81E650FD4F58
:101B30009083EB81FC81E550FD4FF082EB81FC81CD
:101B4000E450FD4FF082EB81FC81E350FD4FA08219
:101B5000EB81FC81E250FD4F6083EB81FC81E15021
:101B6000FD4F87E68083EB81FC81FD5F7083EB8115
:101B7000FC81EF5FFC4FD082EB81FC81EE5FFC4F7C
:101B8000B9E7B083EB81FC81ED5FFC4F6083EB81B3
:101B9000FC81EC5FFC4FB082EB81FC81EB5FFC4F82
:101BA0000083AB81BC81A95FBC4F88E1EBE2F1E02F
:101BB00001900D928A95E1F70F900F900F900F9082
:101BC000DF91CF911F910F91FF90EF90DF90CF9019
:101BD000BF90AF909F908F907F906F905F904F904D
:101BE0003F902F90089583E084B908952998289A0A
:101BF00008952898299A0895289829980895CF93A8
:101C0000DF93D82FC92F0E94F60D8FE39CE901972F
:101C1000F1F700C000008D2F9C2F0E94F90D8FE17D
:101C20009EE40197F1F700C00000DF91CF91089585
:101C30000895089580EA809300011092B90080E22F
:101C40008093B8000895FC0180E88083CF010C9454
:101C50001A0E982F9370891305C0880F806A80939D
:101C6000000108958FEF0895FA0194EA24E8909313
:101C7000BC008091BC0087FFFCCF80910001809365
:101C8000BB002093BC008091BC0087FFFCCF8091FB
:101C9000B900883161F784EA8093BC008091BC0070
:101CA00087FFFCCF809100018093BB0084E8809384
:101CB000BC008091BC0087FFFCCF7093BB0084E820
:101CC0008093BC008091BC0087FFFCCF6093BB0079
:101CD00084E88093BC008091BC0087FFFCCF80919A
:101CE000BC0087FFFCCF84EA8093BC008091BC00DD
:101CF00087FFFCCF809100018F5F8093BB0084E859
:101D00008093BC008091BC0087FFFCCF84E8809367
:101D1000BC008091BC0087FFFCCF8091BB0080831A
:101D200084E98093BC0080E0089594EA34E89093BD
:101D3000BC008091BC0087FFFCCF809100018093A4
:101D4000BB003093BC008091BC0087FFFCCF80912A
:101D5000B900883161F784EA8093BC008091BC00AF
:101D600087FFFCCF809100018093BB0084E88093C3
:101D7000BC008091BC0087FFFCCF7093BB0084E85F
:101D80008093BC008091BC0087FFFCCF6093BB00B8
:101D900084E88093BC008091BC0087FFFCCF84EA7C
:101DA0008093BC008091BC0087FFFCCF8091000134
:101DB0008F5F8093BB0084E88093BC008091BC005F
:101DC00087FFFCCF84EC211105C084E98093BC001F
:101DD00080E00895213009F484E88093BC0090915C
:101DE000BC0097FFFCCFFA019091BB00919321506A
:101DF000AF01E9CF94EA24E89093BC008091BC0045
:101E000087FFFCCF809100018093BB002093BC0032
:101E10008091BC0087FFFCCF8091B900883161F7C9
:101E200084EA8093BC008091BC0087FFFCCF809146
:101E300000018093BB0084E88093BC008091BC00CB
:101E400087FFFCCF7093BB0084E88093BC00809137
:101E5000BC0087FFFCCF6093BB0084E88093BC008C
:101E60008091BC0087FFFCCF4093BB0084E8809347
:101E7000BC008091BC0087FFFCCF84E98093BC004C
:101E800080E00895FB01260F372F311DDC018C9176
:101E90008150990B862B9F2B2817390718F09C012E
:101EA0002F5F3F4F822F8E1B24EA34E82093BC0023
:101EB0009091BC0097FFFCCF909100019093BB00E4
:101EC0003093BC009091BC0097FFFCCF9091B9007B
:101ED000983161F794EA9093BC009091BC0097FF11
:101EE000FCCF909100019093BB0094E89093BC00CC
:101EF0009091BC0097FFFCCFF093BB0094E89093C7
:101F0000BC009091BC0097FFFCCFE093BB0094E82D
:101F10009093BC009091BC0097FFFCCF982F24E8D1
:101F2000911104C094E99093BC000895FA01319195
:101F30003093BB002093BC003091BC0037FFFCCF36
:101F40009150AF01EDCFDF92EF92FF920F931F936D
:101F5000CF93DF93D82ED92F7B018A01C22F2C2F4C
:101F6000A801B7018D2D9D2F0E94420F282F30E030
:101F7000E20EF31EC81B020F131FC111F0CF80E049
:101F8000DF91CF911F910F91FF90EF90DF90089517
:101F9000CF92DF92EF92FF920F931F93CF93DF9335
:101FA000EC0168A349A3D12CC12CE62EF12C042FFF
:101FB00010E0CE14DF045CF4A80170E060E0CE0114
:101FC0000E949C138FEFC81AD80A2896F2CFDF918F
:101FD000CF911F910F91FF90EF90DF90CF900895D8
:101FE00023E0660F771F2A95E1F7860F971F840F6E
:101FF000951F21E0FC01208308951092C5008FEC0D
:102000008093C400E1ECF0E0808188618083E2ECA1
:10201000F0E080818660808308958091C00085FF14
:10202000FCCF6093C60008958091C00087FFFCCF6D
:102030008091C60008950895CDB7DEB7C05BD34048
:102040000FB6F894DEBF0FBECDBF44E068E0CE010E
:10205000805E9C4F0E94C80F7E0124E5E21A2CEF9F
:10206000F20AC7010E94F30D8E0105551C4FC801ED
:102070000E94FD0FCE0186559C4F0E94230ECE017B
:1020800001960E94B60181E0C35DDC4F8883CD528A
:10209000D340C25CDC4F8883CE53D340CA5CDC4F54
:1020A0008883C653D340C85DDC4F8883C852D34071
:1020B000C95DDC4F8883C752D340C65CDC4F888340
:1020C000CA53D340AE01405E5C4F3A01CA0130E0D2
:1020D000812CDE2CCF2C1801DC0120E04D91413009
:1020E00069F4E82DF0E0EE0FFF1F4CE853E04C0FD1
:1020F0005D1FE40FF51F3083218383942F5F283009
:1021000069F73F5F0896343039F78E0104571C4F4A
:10211000B12CC355DC4F1882CD5AD340C355DC4F88
:10212000E881CD5AD340EE2EF12CEE0CFF1CECE8EA
:10213000F3E0EC0FFD1FEE0DFF1D2181C155DC4FBB
:102140002883CF5AD3408B104FC2C355DC4F9880A1
:10215000CD5AD340512CA82CB12C092D10E0C80128
:102160000196B5010E946213000F111F4CE853E065
:102170004C0F5D1F040F151F6A01982E412CE92D8D
:10218000F0E0EE0FFF1F841046C2A52DB0E0AA0FAD
:10219000BB1F2AE733E02C0F3D1FA20FB31F4CE8F3
:1021A00053E04C0F5D1FE40FF51F80818C938181FC
:1021B00011968C935394C355DC4F5881CD5AD3401C
:1021C0005911CBCFA52DB0E0AA0FBB1FA20FB31F93
:1021D000ECE8F3E0EC0FFD1FEE0DFF1D80818C930A
:1021E000C155DC4F8881CF5AD34011968C93F901A9
:1021F00080E091E0851121C262E0C1010E940D10D2
:102200006AE0C1010E940D1088E1E1E0F1E0DE0129
:10221000AE59BC4F01900D928A95E1F7CE018256DE
:102220009C4F2CE0E9E1F1E0DC0101900D922A9550
:10223000E1F77E015BE5E50EF11C8E010F5F1F4F9C
:102240006C01D8016D918D01C1010E940D100E1518
:102250001F05B9F76AE0C1010E940D104E01BEEBE7
:102260008B1ABCEF9B0A7601F6013C96C155DC4FF8
:10227000F983E883CF5AD340560151E1452E62E6F7
:10228000262E63E0362E2C0E3D1EF8E12F0E311C5B
:10229000CE018E599C4F6C01C355DC4F99828882C8
:1022A000CD5AD340C355DC4FA881B981CD5AD34014
:1022B0008D91C355DC4FB983A883CD5AD34081306B
:1022C00009F05EC0042D10E0B8016B5E7E4FE1E0C6
:1022D000F0E0EC0FFD1F6E0F7F1FC801835E9E4F65
:1022E00044E650E08E0F9F1F0E948A13E5E1F1E063
:1022F000EC0FFD1FE00FF11FD6018C918083E6E10A
:10230000F1E0EC0FFD1FE00FF11F11968C9111977A
:102310008083E7E1F1E0EC0FFD1FE00FF11F129663
:102320008C918083E8E1F1E0EC0FFD1FE00FF11FDD
:10233000BCE2B083E9E1F1E0EC0FFD1FE00FF11F1B
:10234000D5018C918083EAE1F1E0EC0FFD1FE00FF5
:10235000F11F11968C9111978083EBE1F1E0EC0F66
:10236000FD1FE00FF11F12968C918083ECE1F1E0EC
:10237000EC0FFD1FE00FF11FB0E2B083E8E04E0E5E
:10238000F3E0CF0ED11CC214D30409F08BCF28E0A8
:10239000820E911C33E0A30EB11CC155DC4F488165
:1023A0005981CF5AD340A416B50609F071CF5E010A
:1023B0009DE5A90EB11C88248394912C8C0E9D1E42
:1023C000A7EB8A0E911C6E01B5E5CB1ABCEFDB0AB8
:1023D000F50161915F01C6010E940D108601A814EC
:1023E000B904B1F76AE0C6010E940D106E01F9EB65
:1023F000CF0ED11CAA24A394B12CAC0EBD1E2DEE81
:10240000A21A2EEFB20AD6016D916D01C8010E9489
:102410000D10CA14DB04B9F76AE0C8010E940D1060
:10242000B8E05B9E60011124E3E4CE0ED11C4E01A6
:10243000FBEE8F1AFEEF9F0AB12CA12CD4016D91F7
:102440004D01C8010E940D10BFEFAB1ABB0AAC14BE
:10245000BD04A0F36AE0C8010E940D10E1E0F0E0C5
:10246000EC0FFD1FEB5AFD4FC355DC4FF983E8839A
:10247000CD5AD3406AE0C8010E940D109E012E592A
:102480003C4F69012301D2016D912D01F60150816C
:1024900041813281D7012C9111969C91119712960E
:1024A0008C91613009F0DBC0CB53DD4F5883C55CA4
:1024B000D240CA53DD4F4883C65CD240C953DD4F7A
:1024C0003883C75CD240C253DD4F2883CE5CD240F4
:1024D000C153DD4F9883CF5CD240C053DD4F88831A
:1024E000C05DD2405E01B7E4AB1ABDEFBB0A8824E1
:1024F0008394912C8C0E9D1EEAEF8E1AECEF9E0AAF
:10250000D5016D915D01C8010E940D10A814B90498
:10251000B9F76AE0C8010E940D10B3E0CB0ED11CE0
:10252000C214D30409F0AFCFF8E06F0E711C23E0A2
:10253000E20EF11CC155DC4F48815981CF5AD3407E
:10254000E416F50609F096CF7E0159EAE51A5DEF2B
:10255000F50ACC24C394D12CCC0EDD1E8BE5C81A11
:102560008DEFD80AD7016D917D01C8010E940D1031
:10257000CE14DF04B9F76AE0C8010E940D106E01A5
:10258000BDE4CB1ABDEFDB0AEE24E394F12CEC0E94
:10259000FD1EE8E4EE1AEDEFFE0AD6016D916D0125
:1025A000C8010E940D10CE14DF04B9F76AE0C8011B
:1025B0000E940D1063E0C8010E940D1060E2C80186
:1025C0000E940D1064E0C8010E940D106FE4C80164
:1025D0000E940D10BFEFE0E7F2E0B150E040F040A4
:1025E000E1F700C00000F2CFD80111968C91C155DF
:1025F000DC4FB881CF5AD3408B1748F48D2D9C2DDA
:102600000E94F60DC355DC4FB882CD5AD340B39427
:102610000E5F1F4F83CD4CE853E04C0F5D1F4E0FF4
:102620005F1FB601C8010E945500823009F4942C46
:102630004394B2E0CB0ED11CA2CDA081218138E021
:10264000A39FD001112442E453E04C0F5D1FA40F5F
:10265000B51FA20FB11D9C938F5F3296CBCDCC5F7F
:10266000DD4F5883C450D240CB5FDD4F4883C55007
:10267000D240CA5FDD4F3883C650D240C45FDD4FC1
:102680002883CC50D240C35FDD4F9883CD50D240D9
:10269000C25FDD4F8883CE50D2405E01E5E0AE1AC6
:1026A000EEEFBE0AD5016D915D01C8010E940D10CB
:1026B000C355DC4FE881F981CD5AD340EA15FB05BB
:1026C00089F727CF97FB072E16F4009407D077FDE4
:1026D00009D00E94761307FC05D03EF490958195B1
:1026E0009F4F0895709561957F4F0895AA1BBB1B5E
:1026F00051E107C0AA1FBB1FA617B70710F0A61B02
:10270000B70B881F991F5A95A9F780959095BC0122
:10271000CD0108956817790768F4FB01DC01E40F27
:10272000F51FA40FB51F02C002900E9241505040F9
:10273000D8F708950C94A313DC0101C06D934150A8
:102740005040E0F70895FB01DC0102C001900D92BA
:0C27500041505040D8F70895F894FFCF96
:10275C00A0313836323936343036353136363236B9
:10276C003733363834363935363132333232393311
:10277C0033353434313C2F7376673E313836323949
:10278C0036343036353136363236373336383436F1
:04279C003935360095
:00000001FF
