:100000000C943E000C9453000C9453000C94530039
:100010000C9453000C9453000C9453000C94530014
:100020000C9453000C9453000C9453000C94530004
:100030000C9453000C9453000C9453000C945300F4
:100040000C9453000C9453000C9453000C945300E4
:100050000C9453000C9453000C9453000C945300D4
:100060000C9453000C9453000C9453000C945300C4
:100070000C9453000C9453000C94530011241FBE95
:10008000CFEFD8E0DEBFCDBF11E0A0E0B1E0E8EAFD
:10009000FCE102C005900D92A632B107D9F70E948B
:1000A000C60D0C94520E0C9400002F923F924F926A
:1000B0005F926F927F928F929F92AF92BF92CF92F8
:1000C000DF92EF92FF920F931F93CF93DF9300D0B5
:1000D00000D0CDB7DEB78B839C838B819C810E943F
:1000E000A70D88E1E1E0F1E0AB81BC8111960190C0
:1000F0000D928A95E1F78CE0E9E1F1E0AB81BC81FA
:10010000599601900D928A95E1F7EB81FC81B596A5
:10011000DF010CE51D920A95E9F78CE3482EAB81CF
:10012000BC8195964C92959772E796967C9396979C
:1001300045E697964C93979793E6D92E9896DC923E
:10014000989734E799963C93999790E29A969C9366
:100150009A97E8E79B96EC939B972DE39C962C93BC
:100160009C9782E29D968C939D9750E3B52E9E9628
:10017000BC929E979F968C939F97D0969C93D09776
:1001800069E7862ED1968C92D197D2962C93D297EE
:10019000D3968C93D397D496BC92D497D5968C93C0
:1001A000D597D6969C93D697E7E7AE2ED796AC9286
:1001B000D79759E6D8965C93D897F4E69F2ED996B0
:1001C0009C92D997DA963C93DA97E8E6DB96EC9323
:1001D000DB97DC962C93DC97DD968C93DD9711E30F
:1001E000E12EDE96EC92DE97DF96BC92DF97A05C64
:1001F000BF4FBC92AB81BC81AF5BBF4F65E26C93DC
:10020000AB81BC81AE5BBF4F8C93AB81BC81AD5BDE
:10021000BF4F9C93AB81BC81AC5BBF4FEC93AB8178
:10022000BC81AB5BBF4F4C93AB81BC81AA5BBF4F22
:100230005C93AB81BC81A95BBF4F07E6602E6C92DB
:10024000AB81BC81A85BBF4FEC93AB81BC81A75B4A
:10025000BF4F3C93AB81BC81A65BBF4F2C93AB815E
:10026000BC81A55BBF4F8C93AB81BC81A45BBF4FAE
:10027000EC92AB81BC81A35BBF4FBC92AB81BC81D4
:10028000A25BBF4FBC92AB81BC81A15BBF4F6C93A3
:10029000AB81BC81A05BBF4F8C93AB81BC81AF5A5B
:1002A000BF4F9C93AB81BC81AE5ABF4F63E7C62E54
:1002B000CC92AB81BC81AD5ABF4F3C93AB81BC812A
:1002C000AC5ABF4F7C93AB81BC81AB5ABF4FFFE6AA
:1002D000FF2EFC92AB81BC81AA5ABF4FFBE6FC9378
:1002E000AB81BC81A95ABF4F4C93AB81BC81A85A4A
:1002F000BF4F2C93AB81BC81A75ABF4F8C93AB816E
:10030000BC81A65ABF4F12E6712E7C92AB81BC8194
:10031000A55ABF4F6CE66C93AB81BC81A45ABF4F0A
:1003200001E60C93AB81BC81A35ABF4FDC92AB8139
:10033000BC81A25ABF4FFC93AB81BC81A15ABF4F75
:100340008C93AB81BC81A05ABF4F9C93AB81BC8185
:10035000AF59BF4FCC92AB81BC81AE59BF4F3C93DC
:10036000AB81BC81AD59BF4F7C93AB81BC81AC5993
:10037000BF4FFC92AB81BC81AB59BF4FFC93AB81AB
:10038000BC81AA59BF4F4C93AB81BC81A959BF4FC7
:100390001DE21C93AB81BC81A859BF4FAC92AB81CD
:1003A000BC81A759BF4F5C93AB81BC81A659BF4F9D
:1003B0009C92AB81BC81A559BF4F3C93AB81BC8162
:1003C000A459BF4FEC93AB81BC81A359BF4F2C9371
:1003D000AB81BC81A259BF4F8C93AB81BC81A15929
:1003E000BF4FEC92AB81BC81A059BF4F8C93AB81C6
:1003F000BC81AF58BF4F9C93AB81BC81AE58BF4FFF
:1004000006E6502E5C92AB81BC81AD58BF4F5C9329
:10041000AB81BC81AC58BF4F6C93AB81BC81AB58F6
:10042000BF4F6C93AB81BC81AA58BF4F2C93AB815B
:10043000BC81A958BF4F8C93AB81BC81A858BF4FDA
:10044000AC92AB81BC81A758BF4FEC93AB81BC8110
:10045000A658BF4F5C93AB81BC81A558BF4F3C935E
:10046000AB81BC81A458BF4F4C93AB81BC81A358D6
:10047000BF4F8C93AB81BC81A258BF4F1FE2212E8E
:100480002C92AB81BC81A158BF4F0EE3302E3C9221
:100490000B811C810F571F4F1A830983D8010CE56C
:1004A0001D920A95E9F7A981BA814C92AB81BC8172
:1004B000AE57BF4F7C93AB81BC81AD57BF4F4C93C0
:1004C000AB81BC81AC57BF4FDC92AB81BC81AB57D9
:1004D000BF4F3C93AB81BC81AA57BF4F9C93AB816C
:1004E000BC81A957BF4F08E70C93AB81BC81A857CB
:1004F000BF4F2C93AB81BC81A757BF4F8C930B810F
:100500001C8106571F4FD80109E30C930B811C81F6
:1005100005571F4FD80106E30C930B811C8104572C
:100520001F4FD8018C930B811C8103571F4FD8019B
:100530009C930B811C8102571F4FD8018C920B8119
:100540001C8101571F4FD8012C930B811C81005730
:100550001F4FD8018C930B811C810F561F4FD80160
:1005600004E30C930B811C810E561F4FD80108E346
:100570000C930B811C810D561F4FD8018C930B815E
:100580001C810C561F4FD8019C930B811C810B566C
:100590001F4FD801AC920B811C810A561F4FD80106
:1005A0005C930B811C8109561F4FD8019C920B81D3
:1005B0001C8108561F4FD8013C930B811C810756A4
:1005C0001F4FD801EC930B811C8106561F4FD80199
:1005D0002C930B811C8105561F4FD8018C930B81E6
:1005E0001C8104561F4FD80109E30C930B811C8119
:1005F00003561F4FD80106E30C930B811C81025652
:100600001F4FD801BC920B811C8101561F4FD8018E
:100610008C930B811C8100561F4FD8019C930B813A
:100620001C810F551F4FD801EC930B811C810E5577
:100630001F4FD8014C930B811C810D551F4FD801C2
:100640005C930B811C810C551F4FD8016C920B8160
:100650001C810B551F4FD801EC930B811C810A554F
:100660001F4FD8013C930B811C8109551F4FD801A6
:100670002C930B811C8108551F4FD8018C930B8143
:100680001C8107551F4FD80104E30C93AB81BC813B
:10069000A655BF4F18E31C93AB81BC81A555BF4F36
:1006A000BC92AB81BC81A455BF4F8C93AB81BC8104
:1006B000A355BF4F9C93AB81BC81A255BF4FCC9239
:1006C000AB81BC81A155BF4F3C93AB81BC81A05590
:1006D000BF4F7C93AB81BC81AF54BF4FFC92AB81C9
:1006E000BC81AE54BF4FFC93AB81BC81AD54BF4FB6
:1006F0004C93AB81BC81AC54BF4F2C93AB81BC817C
:10070000AB54BF4F8C93AB81BC81AA54BF4F7C923A
:10071000AB81BC81A954BF4F6C93AB81BC81A85401
:10072000BF4F01E60C93AB81BC81A754BF4FDC9255
:10073000AB81BC81A654BF4FFC93AB81BC81A55457
:10074000BF4F8C93AB81BC81A454BF4F9C93AB81B2
:10075000BC81A354BF4FCC92AB81BC81A254BF4F8C
:100760003C93AB81BC81A154BF4F7C93AB81BC81D6
:10077000A054BF4FFC92AB81BC81AF53BF4FFC93E1
:10078000AB81BC81AE53BF4F4C93AB81BC81AD53A9
:10079000BF4F1DE21C93AB81BC81AC53BF4FAC92E9
:1007A000AB81BC81AB53BF4F5C93AB81BC81AA537F
:1007B000BF4F9C92AB81BC81A953BF4F3C93AB818F
:1007C000BC81A853BF4FEC93AB81BC81A753BF4FF3
:1007D0002C93AB81BC81A653BF4F8C93AB81BC8162
:1007E000A553BF4FEC92AB81BC81A453BF4F8C93F8
:1007F000AB81BC81A353BF4F9C93AB81BC81A253FF
:10080000BF4F5C92AB81BC81A153BF4F5C93AB8166
:10081000BC81A053BF4F6C93AB81BC81AF52BF4F23
:100820006C93AB81BC81AE52BF4F2C93AB81BC812A
:10083000AD52BF4F8C93AB81BC81AC52BF4FAC92D9
:10084000AB81BC81AB52BF4FEC93AB81BC81AA5250
:10085000BF4F5C93AB81BC81A952BF4F3C93AB812E
:10086000BC81A852BF4F4C93AB81BC81A752BF4FF4
:100870008C93AB81BC81A652BF4F2C92AB81BC81C3
:10088000A552BF4F3C920B811C8103521F4F1A830C
:10089000098316EEA981BA811D921A95E9F7A981FB
:1008A000BA814C920B811C8102521F4FD80100E784
:1008B0000C930B811C8101521F4FD801FC920B81BC
:1008C0001C8100521F4FD8016C930B811C810F516A
:1008D0001F4FD8018C920B811C810E511F4FD801E4
:1008E0006C920B811C810D511F4FD801FC920B8122
:1008F0001C810C511F4FD8010EE60C930B811C81FB
:100900000B511F4FD8019C930B811C810A511F4F23
:10091000D80100E70C930B811C8109511F4FD801AE
:10092000FC920B811C8108511F4FD8015C930B81F5
:100930001C8107511F4FD8010EE60C930B811C81BF
:1009400006511F4FD8013C930B811C8105511F4F4D
:10095000D801CC920B811C8104511F4FD8012C93DC
:100960000B811C8103511F4FD8018C930B811C817B
:1009700002511F4FD8018C930B811C8101511F4FD5
:10098000D8019C930B811C8100511F4FD801CC9240
:100990000B811C810F501F4FD8013C930B811C8190
:1009A0000E501F4FD8018C920B811C810D501F4F90
:1009B000D8016C930B811C810C501F4FD8014C93B4
:1009C0000B811C810B501F4FD8012C930B811C8174
:1009D0000A501F4FD8018C930B811C8109501F4F67
:1009E000D8015C920B811C8108501F4FD8015C9389
:1009F0000B811C8107501F4FD8016C930B811C8108
:100A000006501F4FD8016C930B811C8105501F4F5E
:100A1000D8010AE30C930B811C8104501F4FD801AD
:100A20006C920B811C8103501F4FD8017C930B816A
:100A30001C8102501F4FD8014C930B811C81015027
:100A40001F4FD8014C930B811C811395D8010EE6E2
:100A50000C930B811C810F5F1E4FD8010BE30C938D
:100A60000B811C810E5F1E4FD801CC920B811C8123
:100A70000D5F1E4FD8013C930B811C810C5F1E4FF4
:100A8000D8017C930B811C810B5F1E4FD801FC9217
:100A90000B811C810A5F1E4FD801FC930B811C81C6
:100AA000095F1E4FD8014C930B811C81085F1E4FBC
:100AB000D8010AE30C930B811C81075F1E4FD801FC
:100AC0007C920B811C81065F1E4FD8016C930B81B9
:100AD0001C81055F1E4F1A83098305E7A981BA812E
:100AE0000C930B811C81045F1E4FD8014C930B812A
:100AF0001C81035F1E4FD8010BE30C930B811C81FB
:100B0000025F1E4FD801CC920B811C81015F1E4FEA
:100B1000D8013C930B811C81005F1E4FD8017C9350
:100B20000B811C810F5E1E4FD801FC920B811C8132
:100B30000E5E1E4FD801FC930B811C810D5E1E4F73
:100B4000D8014C930B811C810C5E1E4FD8010DE225
:100B50000C930B811C810B5E1E4FD801AC920B8154
:100B60001C810A5E1E4FD8015C930B811C81095EBB
:100B70001E4FD8019C920B811C81085E1E4FD8012C
:100B80003C930B811C81075E1E4FD801EC930B81B7
:100B90001C81065E1E4FD8010AE30C93AB81BC8119
:100BA000A55EBE4F12E31C93AB81BC81A45EBE4F19
:100BB0008C93AB81BC81A35EBE4F9C93AB81BC8107
:100BC000A25EBE4F2C92AB81BC81A15EBE4F3C9217
:100BD000AB81BC81AD53BE4FBA83A9830CE51D9296
:100BE0000A95E9F7A981BA814C92AB81BC81AC53DB
:100BF000BE4F7C93AB81BC81AB53BE4F4C93AB815A
:100C0000BC81AA53BE4FDC92AB81BC81A953BE4FBD
:100C10003C93AB81BC81A853BE4F9C93AB81BC81FC
:100C2000A753BE4F08E70C93AB81BC81A653BE4FC0
:100C30002C93AB81BC81A553BE4F8C93AB81BC81FF
:100C4000A453BE4FEC92AB81BC81A353BE4F08E3CB
:100C50000C93AB81BC81A253BE4F06E30C93AB81D6
:100C6000BC81A153BE4F8C93AB81BC81A053BE4FBE
:100C70009C93AB81BC81AF52BE4F8C92AB81BC8147
:100C8000AE52BE4F2C93AB81BC81AD52BE4F8C9304
:100C9000AB81BC81AC52BE4FEC92AB81BC81AB52FC
:100CA000BE4F1C93AB81BC81AA52BE4F03E30C9391
:100CB000AB81BC81A952BE4F8C93AB81BC81A85241
:100CC000BE4F9C93AB81BC81A752BE4FAC92AB810F
:100CD000BC81A652BE4F5C93AB81BC81A552BE4F76
:100CE0009C92AB81BC81A452BE4F3C93AB81BC8132
:100CF000A352BE4FEC93AB81BC81A252BE4F2C934A
:100D0000AB81BC81A152BE4F8C93AB81BC81A05200
:100D1000BE4FEC92AB81BC81AF51BE4FBC92AB8158
:100D2000BC81AE51BE4F8C93AB81BC81AD51BE4FE7
:100D30009C93AB81BC81AC51BE4FEC93AB81BC8129
:100D4000AB51BE4F4C93AB81BC81AA51BE4F5C935B
:100D5000AB81BC81A951BE4F6C92AB81BC81A851C3
:100D6000BE4FEC93AB81BC81A751BE4F3C93AB818E
:100D7000BC81A651BE4F2C93AB81BC81A551BE4F07
:100D80008C93AB81BC81A451BE4FEC92AB81BC81F2
:100D9000A351BE4FBC92AB81BC81A251BE4F8C937C
:100DA000AB81BC81A151BE4F9C93AB81BC81A05152
:100DB000BE4FCC92AB81BC81AF50BE4F3C93AB8158
:100DC000BC81AE50BE4F7C93AB81BC81AD50BE4F59
:100DD000FC92AB81BC81AC50BE4FFC93AB81BC811B
:100DE000AB50BE4F4C93AB81BC81AA50BE4F2C93ED
:100DF000AB81BC81A950BE4F8C93AB81BC81A85004
:100E0000BE4F7C92AB81BC81A750BE4F6C93AB812F
:100E1000BC81A650BE4F01E60C93AB81BC81A550AE
:100E2000BE4FDC92AB81BC81A450BE4FFC93AB8122
:100E3000BC81A350BE4F8C93AB81BC81A250BE4FEE
:100E40009C93AB81BC81A150BE4FCC92AB81BC8145
:100E5000BE5F3C93AB81BC81AF5FBD4F7C93AB81E8
:100E6000BC81AE5FBD4FFC92AB81BC81AD5FBD4F1D
:100E7000FC93AB81BC81AC5FBD4F4C93AB81BC811B
:100E8000AB5FBD4F0DE20C93AB81BC81AA5FBD4F40
:100E9000AC92AB81BC81A95FBD4F5C93AB81BC813F
:100EA000A85FBD4F9C92AB81BC81A75FBD4F3C93B7
:100EB000AB81BC81A65FBD4FEC93AB81BC81A55FCC
:100EC000BD4F2C93AB81BC81A45FBD4F8C93AB8194
:100ED000BC81A35FBD4FEC92AB81BC81A25FBD4FD3
:100EE0008C93AB81BC81A15FBD4F9C93AB81BC81D6
:100EF000A05FBD4F5C92AB81BC81AF5EBD4F5C9388
:100F0000AB81BC81AE5EBD4F6C93AB81BC81AD5EED
:100F1000BD4F6C93AB81BC81AC5EBD4F2C93AB815C
:100F2000BC81AB5EBD4F8C93AB81BC81AA5EBD4FD3
:100F30007C92AB81BC81A95EBD4F6C93AB81BC81BF
:100F4000A85EBD4F01E60C93AB81BC81A75EBD4F8F
:100F5000DC92AB81BC81A65EBD4FFC93AB81BC81B2
:100F6000A55EBD4F8C93AB81BC81A45EBD4F2C921E
:100F7000AB81BC81A35EBD4F3C92AB81BC81A15EC5
:100F8000BD4FBA83A9830FE41D920A95E9F7A981A1
:100F9000BA814C92AB81BC81A05EBD4FDC92AB812B
:100FA000BC81AF5DBD4F5C93AB81BC81AE5DBD4F7D
:100FB0007C93AB81BC81AD5DBD4FDC92AB81BC81CC
:100FC000AC5DBD4F6C93AB81BC81AB5DBD4F4C93B1
:100FD000AB81BC81AA5DBD4F9C93AB81BC81A95DF7
:100FE000BD4FDC92AB81BC81A85DBD4F08E70C937F
:100FF000AB81BC81A75DBD4F2C93AB81BC81A65D4D
:10100000BD4F8C93AB81BC81A55DBD4FEC92AB8194
:10101000BC81A45DBD4F08E30C93AB81BC81A35D93
:10102000BD4F06E30C93AB81BC81A25DBD4F8C9399
:10103000AB81BC81A15DBD4F9C93AB81BC81A05DA8
:10104000BD4FDC92AB81BC81AF5CBD4F8C92AB815C
:10105000BC81AE5CBD4F2C93AB81BC81AD5CBD4F00
:101060008C93AB81BC81AC5CBD4FEC92AB81BC81FD
:10107000AB5CBD4F1C93AB81BC81AA5CBD4F03E34D
:101080000C93AB81BC81A95CBD4F8C93AB81BC81BF
:10109000A85CBD4F9C93AB81BC81A75CBD4F7C938A
:1010A000AB81BC81A65CBD4F2C93AB81BC81A55CA0
:1010B000BD4F8C93AB81BC81A45CBD4FEC92AB81E6
:1010C000BC81A35CBD4FBC92AB81BC81A25CBD4F17
:1010D0008C93AB81BC81A15CBD4F9C93AB81BC81E7
:1010E000A05CBD4FCC92AB81BC81AF5BBD4F3C934C
:1010F000AB81BC81AE5BBD4F7C93AB81BC81AD5BF2
:10110000BD4FFC92AB81BC81AC5BBD4FFC93AB810E
:10111000BC81AB5BBD4F4C93AB81BC81AA5BBD4F27
:101120002C93AB81BC81A95BBD4F8C93AB81BC81FF
:10113000A85BBD4F7C92AB81BC81A75BBD4F6C931C
:10114000AB81BC81A65BBD4F01E60C93AB81BC813A
:10115000A55BBD4FDC92AB81BC81A45BBD4FFC9312
:10116000AB81BC81A35BBD4F8C93AB81BC81A25B87
:10117000BD4F9C93AB81BC81A15BBD4FCC92AB8139
:10118000BC81A05BBD4F3C93AB81BC81AF5ABD4FCE
:101190007C93AB81BC81AE5ABD4FFC92AB81BC81CC
:1011A000AD5ABD4FFC93AB81BC81AC5ABD4F4C9343
:1011B000AB81BC81AB5ABD4FFDE2FC93AB81BC81DE
:1011C000AA5ABD4FAC92AB81BC81A95ABD4F5C936A
:1011D000AB81BC81A85ABD4F9C92AB81BC81A75A00
:1011E000BD4F3C93AB81BC81A65ABD4FEC93EB81C4
:1011F000FC81E55AFD4F2083EB81FC81E45AFD4FD1
:101200008083EB81FC81E35AFD4F1083EB81FC81ED
:10121000E25AFD4F8083EB81FC81E15AFD4F9083C0
:10122000EB81FC81E05AFD4F5082EB81FC81EF594C
:10123000FD4F5083EB81FC81EE59FD4F6083EB81C4
:10124000FC81ED59FD4F6083EB81FC81EC59FD4F32
:101250002083EB81FC81EB59FD4F8083EB81FC8186
:10126000EA59FD4F6082EB81FC81E959FD4F7083A3
:10127000EB81FC81E859FD4F4083EB81FC81E7590C
:10128000FD4F8082EB81FC81E659FD4F8083EB812D
:10129000FC81E559FD4F2082EB81FC81E459FD4F33
:1012A0003082AB81BC81A259BD4F88E1E1E0F1E021
:1012B00001900D928A95E1F70F900F900F900F908B
:1012C000DF91CF911F910F91FF90EF90DF90CF9022
:1012D000BF90AF909F908F907F906F905F904F9056
:1012E0003F902F9008952F923F924F925F926F926E
:1012F0007F928F929F92AF92BF92CF92DF92EF92A6
:10130000FF920F931F93CF93DF938C01362E5A01D8
:101310003C018CE0680E711C6801F80178962F0181
:1013200080E2282E78014501F40181914F0181303E
:10133000F1F5C32DD0E0BE0162527F4F600F711FE7
:10134000CE018A519F4F42E350E0800F911F0E94CF
:10135000300EF7018181C00FD11FFE01E352FF4F14
:101360008083F7018281FE01E252FF4F8083F70103
:101370008381FE01E152FF4F808331968CE28083AE
:10138000F601818DFE01EF51FF4F8083F601828DC2
:10139000FE01EE51FF4F8083F601838DFE01ED517A
:1013A000FF4F8083CC51DF4F2882F8E03F0E83E06F
:1013B000E80EF11CE414F50409F0B6CF98E0A90E8C
:1013C000B11CE3E0CE0ED11CC614D70409F0AACF9D
:1013D000DF91CF911F910F91FF90EF90DF90CF9011
:1013E000BF90AF909F908F907F906F905F904F9045
:1013F0003F902F900895CF92DF92EF92FF920F933C
:101400001F93CF93DF93EC017C0185E2E80EF11C82
:101410008E010F571F4F6801F70161917F01CE01C7
:101420000E94B70DE016F106B9F76AE0CE010E94FE
:10143000B70D8601CE0183529F4F7C016C01F801EC
:1014400061918F01CE010E94B70D0E151F05B9F7EE
:101450006AE0CE010E94B70D8601CE018D539E4FEA
:101460007C01F80161918F01CE010E94B70D0E152C
:101470001F05B9F76AE0CE01DF91CF911F910F915F
:10148000FF90EF90DF90CF900C94B70D2F923F928A
:101490004F925F926F927F928F929F92AF92BF9284
:1014A000CF92DF92EF92FF920F931F93CF93DF9330
:1014B000CDB7DEB76C970FB6F894DEBF0FBECDBFC9
:1014C0008B8F9C8F6B012B8C3C8C8CE0280E311CFD
:1014D0000B8D1C8DF801E15EFD4F3F01C801845367
:1014E0009E4F9C838B83E255F109FE83ED83029628
:1014F00098878F833796FA87E98707969C878B872B
:101500003296FE87ED876AE08B8D9C8D0E94B70D29
:101510008B8D9C8D48969A838983EB8CFC8C26015D
:10152000F701E55DFD4FF88BEF87C701845D9D4FA7
:101530009A8B898B3296FC8BEB8B08969E8B8D8BCE
:101540003896F88FEF8B02969A8F898FF2019191DE
:101550002F01F7018181913009F05CC0EF85F88996
:101560008083F7018281E989FA898083F701838189
:10157000EB89FC898083F801818DED89FE89808368
:10158000F801828DEF89F88D8083F801838DE98DD4
:10159000FA8D808343018B8D9C8D82599D4F5C0118
:1015A000F40161914F018B8D9C8D0E94B70D8A14BF
:1015B0009B04B1F76AE08B8D9C8D0E94B70DF3E020
:1015C000EF0EF11C89819A81E816F90609F0BECF69
:1015D0000D5F1F4FF8E0CF0ED11C0215130509F067
:1015E00092CF6C960FB6F894DEBF0FBECDBFDF91E1
:1015F000CF911F910F91FF90EF90DF90CF90BF9010
:10160000AF909F908F907F906F905F904F903F90A2
:101610002F900895EB81FC818083F7018281ED8119
:10162000FE818083F7018381EF81F8858083F80153
:10163000818DE985FA858083F801828DEB85FC85B3
:101640008083F801838DED85FE858083AB8CBC8C17
:10165000FDE3AF1AFEEFBF0AF50161915F018B8DCB
:101660009C8D0E94B70D6A147B04B1F7A3CF1F9322
:10167000CF93DF93D82FC92F162F60E30E94B70DA9
:1016800068E78D2F9C2F0E94B70D60E38D2F9C2F54
:101690000E94B70D62E3123031F063E3133019F0AA
:1016A000143029F464E38D2F9C2F0E94B70D6AE05B
:1016B0008D2F9C2FDF91CF911F910C94B70D089522
:1016C00080EA809300011092B90080E28093B80014
:1016D0000895FC0180E88083CF010C94600B982F63
:1016E0009370891305C0880F806A80930001089564
:1016F0008FEF0895FA0194EA24E89093BC0080915A
:10170000BC0087FFFCCF809100018093BB00209339
:10171000BC008091BC0087FFFCCF8091B90088316C
:1017200061F784EA8093BC008091BC0087FFFCCF06
:10173000809100018093BB0084E88093BC0080917D
:10174000BC0087FFFCCF7093BB0084E88093BC0093
:101750008091BC0087FFFCCF6093BB0084E880933E
:10176000BC008091BC0087FFFCCF8091BC0087FF4C
:10177000FCCF84EA8093BC008091BC0087FFFCCF43
:10178000809100018F5F8093BB0084E88093BC0050
:101790008091BC0087FFFCCF84E88093BC008091DF
:1017A000BC0087FFFCCF8091BB00808384E98093DD
:1017B000BC0080E0089594EA34E89093BC008091E6
:1017C000BC0087FFFCCF809100018093BB00309369
:1017D000BC008091BC0087FFFCCF8091B9008831AC
:1017E00061F784EA8093BC008091BC0087FFFCCF46
:1017F000809100018093BB0084E88093BC008091BD
:10180000BC0087FFFCCF7093BB0084E88093BC00D2
:101810008091BC0087FFFCCF6093BB0084E880937D
:10182000BC008091BC0087FFFCCF84EA8093BC00A1
:101830008091BC0087FFFCCF809100018F5F809377
:10184000BB0084E88093BC008091BC0087FFFCCF84
:1018500084EC211105C084E98093BC0080E00895E8
:10186000213009F484E88093BC009091BC0097FF7C
:10187000FCCFFA019091BB0091932150AF01E9CFC9
:1018800094EA24E89093BC008091BC0087FFFCCFD1
:10189000809100018093BB002093BC008091BC002C
:1018A00087FFFCCF8091B900883161F784EA80938B
:1018B000BC008091BC0087FFFCCF80910001809329
:1018C000BB0084E88093BC008091BC0087FFFCCF04
:1018D0007093BB0084E88093BC008091BC0087FFBC
:1018E000FCCF6093BB0084E88093BC008091BC0077
:1018F00087FFFCCF4093BB0084E88093BC008091BD
:10190000BC0087FFFCCF84E98093BC0080E0089591
:10191000FB01260F372F311DDC018C918150990B73
:10192000862B9F2B2817390718F09C012F5F3F4FFC
:10193000822F8E1B24EA34E82093BC009091BC00D7
:1019400097FFFCCF909100019093BB003093BC00B7
:101950009091BC0097FFFCCF9091B900983161F74E
:1019600094EA9093BC009091BC0097FFFCCF9091BB
:1019700000019093BB0094E89093BC009091BC0050
:1019800097FFFCCFF093BB0094E89093BC0090913C
:10199000BC0097FFFCCFE093BB0094E89093BC00A1
:1019A0009091BC0097FFFCCF982F24E8911104C0C0
:1019B00094E99093BC000895FA0131913093BB00F3
:1019C0002093BC003091BC0037FFFCCF9150AF0199
:1019D000EDCFDF92EF92FF920F931F93CF93DF93A0
:1019E000D82ED92F7B018A01C22F2C2FA801B70135
:1019F0008D2D9D2F0E94880C282F30E0E20EF31EC3
:101A0000C81B020F131FC111F0CF80E0DF91CF91EF
:101A10001F910F91FF90EF90DF900895CF92DF928A
:101A2000EF92FF920F931F93CF93DF93EC01E62E7B
:101A3000042F82960E94690BE8A209A3D12CC12C25
:101A4000F12C10E0CE14DF045CF4A80170E060E03B
:101A5000CE010E94420E8FEFC81AD80A2896F2CF04
:101A6000DF91CF911F910F91FF90EF90DF90CF907A
:101A7000089523E0660F771F2A95E1F7860F971FD9
:101A8000840F951F21E0FC0120830895EF92FF92BF
:101A90001F93CF93DF93EC0110E07C0182E2E80E0C
:101AA000F11C612F70E089A198A1899FC0011124C8
:101AB0006817790734F0DF91CF911F91FF90EF9075
:101AC0000895412F477088E0489FA0011124812F7D
:101AD000869586958695480F511D4C0F5D1F6D5F4D
:101AE0007F4FC7010E947A0B1F5FDBCFEF92FF92FF
:101AF0001F93CF93DF93EC0110E07C0182E2E80EAC
:101B0000F11C612F70E088A199A1899FC001112467
:101B10006817790734F0DF91CF911F91FF90EF9014
:101B20000895E12FE770812F86958695869598E038
:101B3000E99FF0011124EC0FFD1FE80FF11D6D5F0F
:101B40007F4F4081C7010E94400C1F5FDACF109287
:101B5000C5008FEC8093C400E1ECF0E080818861E7
:101B60008083E2ECF0E0808186608083089580913C
:101B7000C00085FFFCCF6093C60008958091C0002F
:101B800087FFFCCF8091C60008950895CDB7DEB7DA
:101B9000CA5AD2400FB6F894DEBF0FBECDBF44E0A4
:101BA00068E0CE0189579D4F0E940E0DCE018655EB
:101BB0009D4F0E94690BCE0101960E94550081E065
:101BC000C556DD4F8883CB59D240CC56DD4F888334
:101BD000C459D240CB56DD4F8883C559D240CE017F
:101BE00089579D4F0E94460DAE0149575D4F61E1F7
:101BF000CE0101960E94730962E0CE0101960E9417
:101C0000370BCE0101960E94FB09BE0169577D4F3B
:101C1000CE0101960E94460A63E0CE0101960E9421
:101C2000370B64E0CE0101960E94370BCE0101967E
:101C30000E94C50DCE0186559D4F0E945F0B87E81F
:101C400092E08C0F9D1F82960E945F0B90E080E0D7
:101C5000C655DD4F0FB6F894DEBF0FBECDBF089559
:101C60006817790768F4FB01DC01E40FF51FA40F86
:101C7000B51F02C002900E9241505040D8F708950F
:101C80000C94490EDC0101C06D9341505040E0F7C7
:101C90000895FB01DC0102C001900D9241505040BB
:081CA000D8F70895F894FFCF76
:101CA800A031383632393634303635313636323678
:101CB80037333638343639353631323332323933D0
:061CC80033353434310015
:00000001FF
